:100000000C942A000C9447000C9447000C94470071
:100010000C9447000C9447000C9447000C94470044
:100020000C9447000C9447000C9460050C94470016
:100030000C9447000C9447000C9447000C94470024
:100040000C9447000C9447000C9447000C94470014
:100050000C94470011241FBECFE5D8E0DEBFCDBF12
:1000600012E0A0E6B0E0E0E1F9E102C005900D92F7
:10007000A639B107D9F712E0A6E9B2E001C01D9296
:10008000A939B107E1F70E9449000C94860C0C9441
:100090000000CF93DF93CDB7DEB72B970FB6F89460
:1000A000DEBF0FBECDBF83E460E00E94FB0783E4A8
:1000B00061E00E94FB0783E462E00E94FB070E946C
:1000C00082070E94B9060E94E60A80E690E00E943C
:1000D000DA0782E061E00E94ED0781E790E00E948C
:1000E000DA072FEF39E648E1215030404040E1F790
:1000F00000C000000E94E90780E091E00E949E0A93
:10010000813039F481E091E00E949E0A813009F447
:10011000D1C08DE790E00E94DA0782E061E00E94A2
:10012000ED0787E890E00E94DA078FEF99E6A8E1F3
:1001300081509040A040E1F700C000000E94E90714
:1001400082E990E00E94DA0782E061E00E94ED0718
:1001500081EA90E00E94DA078FEF8D838E838F8390
:1001600088878E010B5F1F4F78010F2EFCE0DF2E7A
:10017000F02D0E94F6068F3FE1F3D7018D937D01AC
:100180000E94CE072FEF32E547E02150304040403B
:10019000E1F700C0000082E06D2D0E94ED078AE2C9
:1001A0000E94CE078FEF90E7A2E081509040A040E0
:1001B000E1F700C00000D39490E1D916D1F682E0B7
:1001C00091E0BE016B5F7F4F44E050E00E94C90A9E
:1001D00080E091E061E00E94BD0A0E94E9078DEA9B
:1001E00090E00E94DA072FEF34E34CE021503040DA
:1001F0004040E1F700C000000E94E90788EB90E072
:100200000E94DA0782E061E00E94ED0787EC90E04F
:100210000E94DA070F2EFCE0EF2EF02D0E94F6066A
:100220008F3FE1F3D8018D938D010E94CE072FEF10
:1002300032E547E0215030404040E1F700C0000087
:1002400082E06E2D0E94ED078AE20E94CE078FEFBA
:1002500090E7A2E081509040A040E1F700C000008C
:10026000E39490E1E916D1F686E091E0BE016B5F80
:100270007F4F44E050E00E94C90A81E091E061E0D4
:100280000E94BD0A0E94E9078DEA90E00E94DA0709
:100290002FEF34E34CE0215030404040E1F700C004
:1002A00000000E94E9078AE091E060E00E94BD0A38
:1002B0001B8605C08AE091E00E949E0A8B87EE248F
:1002C0004CE251E049875A870F2EF7E34F2EF1E0B9
:1002D0005F2EF02D0F2EF9E5AF2EF1E0BF2EF02DA1
:1002E00080919602813079F50E940B0B1092980252
:1002F000109297021092960283E461E00E94030834
:1003000083E460E00E9403080E94E90783ED90E027
:100310000E94DA072FEF39E648E121503040404093
:10032000E1F700C00000EE2400E01FEF0F2EF5E61D
:100330008F2EF1E09F2EF02D0F2EF0E76F2EF1E0C3
:100340007F2EF02D04C0EE2079F3BEC1EE243B8554
:10035000313039F50E94E90783EE90E00E94DA0718
:1003600082E061E00E94ED0781EF90E00E94DA07F1
:1003700083E462E00E94FF078AEA96EEA6E9B1E014
:1003800081509040A040B040D9F7000083E462E083
:100390000E9403088AE091E060E00E94BD0A00E04C
:1003A0001B860E94E90781E091E00E94DA0782E063
:1003B00061E00E94ED078FE091E00E94DA071F3FA5
:1003C00029F40E94F606182F8F3FD9F3812F80530E
:1003D000823088F00E94E9078FE191E00E94DA07FD
:1003E0002FEF39E648E1215030404040E1F700C0AE
:1003F00000001FEF66C18FEF8D838E838F83888708
:1004000089838A838B838C83103341F0113309F005
:1004100058C132E0E31609F0AAC056C141E0E41623
:1004200009F452C182E3D82ED01A0F2EFCE0CF2E51
:10043000F02D0E94E90789859A850E94DA0782E0FB
:1004400061E00E94ED07C2010E94DA078FEF91EE92
:10045000A4E081509040A040E1F700C000000F2EC2
:10046000F5E0EF2EFF24F02DEC0EFD1E1C2D0E945A
:10047000F6068F3FE1F3D7018D937D010E94CE07F1
:100480002FEF32E547E0215030404040E1F700C017
:10049000000082E0612F0E94ED078AE20E94CE07F1
:1004A0008FEF90E7A2E081509040A040E1F700C0BC
:1004B00000001F5F1031D9F682E091E0BE016F5F4E
:1004C0007F4F44E050E00E94A50ACE010596BE0190
:1004D0006F5F7F4F44E00E947705813011F50E94E5
:1004E000E90783E491E00E94DA0782E061E00E947C
:1004F000ED078CE291E00E94DA072FEF34E34CE045
:10050000215030404040E1F700C0000083E460E04B
:100510000E94FF070E94F50A0E94E907EE24E39477
:10052000D3C00F5F0E94E9078EE491E00E94DA07D2
:1005300082E061E00E94ED07C5010E94DA078D2D7F
:100540000E94CE078FEF99E6A8E181509040A0402D
:10055000E1F700C000000E94E907DA94033008F4D4
:1005600068CF8AE091E061E00E94BD0A8BC282E31D
:10057000D82ED01A0F2EFCE0CF2EF02D0F2EFCE738
:100580002F2EF1E03F2EF02D0E94E907C4010E94BA
:10059000DA0782E061E00E94ED07C3010E94DA07FA
:1005A0002FEF31EE44E0215030404040E1F700C0F1
:1005B00000000F2EF5E0EF2EFF24F02DEC0EFD1EB7
:1005C0001C2D0E94F6068F3FE1F3D7018D937D012C
:1005D0000E94CE072FEF32E547E0215030404040E7
:1005E000E1F700C0000082E0612F0E94ED078AE27F
:1005F0000E94CE078FEF90E7A2E081509040A0408C
:10060000E1F700C000001F5F1031D9F686E091E0ED
:10061000BE016F5F7F4F44E050E00E94A50ACE010B
:100620000596BE016F5F7F4F44E00E9477058130E1
:1006300019F50E94E90783E491E00E94DA0782E05D
:1006400061E00E94ED0785E691E00E94DA072FEF56
:1006500034E34CE0215030404040E1F700C000005E
:1006600083E461E00E94FF070E94F50A0E94E90707
:10067000EE246894E1F828C00F5F0E94E907C101E9
:100680000E94DA0782E061E00E94ED07C5010E9446
:10069000DA078D2D0E94CE078FEF99E6A8E18150F1
:1006A0009040A040E1F700C000000E94E907DA9402
:1006B000033008F469CF8AE091E061E00E94BD0A4E
:1006C000E1C1EE2009F442CE01E00F2EF7EBCF2E70
:1006D000F1E0DF2EF02DD0C1053009F414C1063051
:1006E00070F4023009F486C0033018F40130A1F729
:1006F0001BC0033009F4FBC0043071F7FEC00830A2
:1007000009F4B8C0093030F4063009F402C10730EA
:1007100019F709C1093009F40CC10A30E9F6882338
:1007200009F40DC108E0A8C10F2EF7E88F2EF1E003
:100730009F2EF02D0F2EF7E96F2EF1E07F2EF02D7A
:100740000F2EF7EA2F2EF1E03F2EF02D802F0E2DE9
:10075000E82E0E94E907C4010E94DA0782E061E006
:100760000E94ED07013021F4C3010E94DA0705C0A1
:10077000023019F4C1010E94DA07802F0E9493050C
:10078000182F2FEF30E742E0215030404040E1F792
:1007900000C00000813309F479C1823309F479C1C2
:1007A000833309F479C1843341F4023009F477C109
:1007B000013029F4E02E02E05FC18F3F91F00E94EA
:1007C000E907C6010E94DA078FEF94E3ACE081509D
:1007D0009040A040E1F700C000001153143008F42D
:1007E00048C180919602882309F4B3CF8E2DE02E64
:1007F000082F42C10E94E90783EC91E00E94DA07CA
:1008000082E061E00E94ED0786ED91E00E94DA0748
:100810008E2D0E949305182F2FEF30E742E02150D4
:1008200030404040E1F700C00000813309F43AC194
:10083000823309F439C1833309F438C1843309F4AC
:1008400037C18F3F91F00E94E907C6010E94DA0785
:100850008FEF94E3ACE081509040A040E1F700C0FE
:1008600000001153143008F407C1809196028823C8
:1008700009F202C10E94E90787EE91E00E94DA07BF
:1008800082E061E00E94ED078AEF91E00E94DA07C2
:100890008E2D0E949305182F2FEF30E742E0215054
:1008A00030404040E1F700C00000813309F402C14C
:1008B000823309F401C1803309F400C18F3F91F004
:1008C0000E94E907C6010E94DA078FEF94E3ACE0CB
:1008D00081509040A040E1F700C000001053133059
:1008E00008F4CAC080919602882321F2C5C083E033
:1008F0006E2D0E94B40501E0BFC084E06E2D0E9401
:10090000B40501E0B9C085E06E2D0E94B40501E098
:10091000B3C086E06E2D0E94B40592E0E91609F09E
:10092000A0C001E0A9C087E06E2D0E94B40502E0DE
:10093000A3C089E06E2D0E94B40508E09DC00E940E
:10094000E9078BE092E00E94DA078FED0E94CE0764
:1009500083E40E94CE0781E06BE00E94ED072FEF59
:1009600031EE44E0215030404040E1F700C000004B
:100970008E2D0E9493052FE73AE146E0215030404A
:100980004040E1F700C0000090919602913009F4D8
:100990006AC0182F10531A3078F00E94E907C60178
:1009A0000E94DA078FEF94E3ACE081509040A040C2
:1009B000E1F700C000004EC00E94CE078E2D0E94BD
:1009C00093052FE73AE146E0215030404040E1F7FF
:1009D00000C0000090919602913009F446C0082FA3
:1009E00000530A3078F00E94E907C6010E94DA0736
:1009F0008FEF94E3ACE081509040A040E1F700C05D
:100A0000000028C00E94CE07110F812F880F880F89
:100A1000180F100F80E40E94F00A2FEF31EE44E02F
:100A2000215030404040E1F700C00000812F0E947B
:100A3000F00A0E94E90789E192E00E94DA078FEF4D
:100A400094E3ACE081509040A040E1F700C000008A
:100A5000112369F480919602882309F470CF08E08D
:100A60000BC002E009C008E007C008E005C008E0CC
:100A700003C08E2DE02E082F80919602813009F45C
:100A80002FCC2ACE1FEF91E09B8760CCE02E03E0B5
:100A9000F3CFE02E04E0F0CFE02E05E0EDCFE02E26
:100AA00006E0EACF06E0E8CF07E0E6CF08E0E4CFD3
:100AB00001E0E2CF0AE0E0CF09E0DECF02E0DCCFE8
:100AC0001F920F920FB60F9211248F939F938091D4
:100AD00097029091980201969093980280939702C2
:100AE0009F918F910F900FBE0F901F9018954423E8
:100AF000A1F0FC013081FB012081321781F4DC017F
:100B00001196319680E004C02D919191291749F4F6
:100B10008F5F8417C9F781E0089581E0089580E030
:100B2000089580E00895CF93C82F80919702909107
:100B300098022BE0883B920710F0C13051F0809171
:100B400097029091980227E0803D920738F0C230DA
:100B500029F481E0809396028FEF04C00E94F6068C
:100B60008F3F19F3CF9108953F924F925F926F920A
:100B70007F928F929F92AF92BF92CF92DF92EF922D
:100B8000FF920F931F93CF93DF93D82F062FEE245E
:100B9000FF2410E00F2EF3E15F2EF02D0F2EF5E174
:100BA0004F2EF02D0F2EF4E13F2EF02D0F2EF4E6F8
:100BB000AF2EF2E0BF2EF02D0F2EF1E68F2EF2E0D9
:100BC0009F2EF02D0F2EF8E6CF2EF2E0DF2EF02D27
:100BD0000F2EF9E76F2EF2E07F2EF02D0E94E9072D
:100BE000D53061F1D63030F4D33061F0D43009F033
:100BF0005CC016C0D730F1F1D73070F1D93009F0B0
:100C000054C046C08AE292E00E94DA070F2EF1E358
:100C1000EF2EF02D0F2EF1E2FF2EF02D11E145C049
:100C200083E392E00E94DA070F2EF2E3EF2EF02D1D
:100C30000F2EF2E2FF2EF02D12E137C08CE392E08E
:100C40000E94DA070F2EF3E3EF2EF02D0F2EF3E2C2
:100C5000FF2EF02D152D29C085E492E00E94DA07C1
:100C60000F2EF4E3EF2EF02D0F2EF4E2FF2EF02DD9
:100C7000132D1BC08EE492E00E94DA070F2EF5E3DD
:100C8000EF2EF02D0F2EF5E2FF2EF02D142D0DC0BE
:100C900084E592E00E94DA070F2EF6E3EF2EF02DA6
:100CA0000F2EF6E2FF2EF02D16E1812F0E94F00AA2
:100CB0008FEF90E7A2E081509040A040E1F700C0A4
:100CC00000008FEF0E94F00A813021F4C4010E94DD
:100CD000DA0703C0C5010E94DA0782E061E00E94E2
:100CE000ED07C6010E94DA07802F0E949305C82FE6
:100CF0008FEF90E7A2E081509040A040E1F700C064
:100D00000000C13321F48F2D0E94F00A20C0C233AD
:100D100021F48E2D0E94F00A1AC0CF3F99F0C03303
:100D2000B1F00E94E907C3010E94DA078FEF94E354
:100D3000ACE081509040A040E1F700C00000C053FB
:100D4000C33028F080919602882309F447CFDF91C1
:100D5000CF911F910F91FF90EF90DF90CF90BF90B8
:100D6000AF909F908F907F906F905F904F903F904B
:100D7000089584E460E041E00E940D0884E461E0AD
:100D800041E00E940D0884E462E041E00E940D0809
:100D900084E463E041E00E940D0884E464E040E004
:100DA0000E940D0884E465E040E00E940D0884E4A0
:100DB00066E040E00E940D0884E467E040E00E94A5
:100DC0000D0884E464E041E00E94FB0984E465E0EE
:100DD00041E00E94FB0984E466E041E00E94FB09D7
:100DE00084E467E041E00E94FB090895EF92FF92DE
:100DF0000F931F93CF93DF93CDB7DEB760970FB6F6
:100E0000F894DEBF0FBECDBFDE011196E5E8F2E03B
:100E100080E101900D928150E1F7EE24FF240FEF65
:100E200084E460E041E00E94900884E461E041E0F5
:100E30000E94900884E462E041E00E94900884E40B
:100E400063E041E00E9490088FE39CE90197F1F78D
:100E500000C0000084E46E2D40E00E94900810E085
:100E6000612F6C5F84E40E941309882379F4F701F1
:100E7000EE0FFF1FEE0FFF1FE10FF11D81E090E06D
:100E80008C0F9D1FE80FF91F008103C01F5F1430F6
:100E900039F70894E11CF11C94E0E916F10409F01B
:100EA000BFCF802F60960FB6F894DEBF0FBECDBFC8
:100EB000DF91CF911F910F91FF90EF90089582E401
:100EC00060E041E00E9490088FE99FE00197F1F710
:100ED00000C0000082E460E040E00E9490088FE9DA
:100EE0009FE00197F1F700C000000895682F81E4AA
:100EF0000E94AB0982E461E040E00E9490080E94F9
:100F00005F07089581E460E041E00E940D0881E4FC
:100F100061E041E00E940D0881E462E041E00E944E
:100F20000D0881E463E041E00E940D0881E464E083
:100F300041E00E940D0881E465E041E00E940D0857
:100F400081E466E041E00E940D0881E467E041E051
:100F50000E940D0882E460E041E00E940D0882E4F6
:100F600062E041E00E940D0882E461E041E00E94FD
:100F70000D0882E462E040E00E94900888E30E944D
:100F8000760781E00E9476078EE00E9476078FE167
:100F90009EE40197F1F700C000000895682F81E4F6
:100FA0000E94AB0982E461E041E00E9490080E9447
:100FB0005F070895CF93DF93EC018881882331F098
:100FC00021960E94CE0789918823D9F7DF91CF918E
:100FD000089581E00E9476070895813019F4862FE4
:100FE000815806C0823019F4862F815401C080E8F0
:100FF0000E947607089541E00E940D08089541E09F
:101000000E949008089540E00E94900808950E9470
:101010006B0908950E9413090895823451F18334B5
:1010200020F4813409F07BC007C0833409F43EC04A
:10103000843409F074C057C0413069F42AB381E0A8
:1010400090E0AC0102C0440F551F6A95E2F7BA0167
:10105000622B6ABB08952AB381E090E0AC0102C024
:10106000440F551F6A95E2F7BA01609562236ABB87
:101070000895413069F427B381E090E0AC0102C0EB
:10108000440F551F6A95E2F7BA01622B67BB0895BA
:1010900027B381E090E0AC0102C0440F551F6A9570
:1010A000E2F7BA016095622367BB0895413069F4A5
:1010B00024B381E090E0AC0102C0440F551F6A9553
:1010C000E2F7BA01622B64BB089524B381E090E09B
:1010D000AC0102C0440F551F6A95E2F7BA01609552
:1010E000622364BB0895413069F421B381E090E04C
:1010F000AC0102C0440F551F6A95E2F7BA01622B9A
:1011000061BB089521B381E090E0AC0102C0440FBF
:10111000551F6A95E2F7BA016095622361BB089595
:10112000823451F1833420F4813409F07BC007C04C
:10113000833409F43EC0843409F074C057C0413090
:1011400069F42BB381E090E0AC0102C0440F551F5D
:101150006A95E2F7BA01622B6BBB08952BB381E06D
:1011600090E0AC0102C0440F551F6A95E2F7BA0146
:10117000609562236BBB0895413069F428B381E028
:1011800090E0AC0102C0440F551F6A95E2F7BA0126
:10119000622B68BB089528B381E090E0AC0102C0E7
:1011A000440F551F6A95E2F7BA016095622368BB48
:1011B0000895413069F425B381E090E0AC0102C0AC
:1011C000440F551F6A95E2F7BA01622B65BB08957B
:1011D00025B381E090E0AC0102C0440F551F6A9531
:1011E000E2F7BA016095622365BB0895413069F466
:1011F00022B381E090E0AC0102C0440F551F6A9514
:10120000E2F7BA01622B62BB089522B381E090E05D
:10121000AC0102C0440F551F6A95E2F7BA01609510
:10122000622362BB08958234F1F0833420F4813468
:1012300009F04FC006C0833441F1843409F049C03D
:1012400036C029B381E090E0062E02C0880F991FB6
:101250000A94E2F730E08223932302C095958795A4
:101260006A95E2F7089526B381E090E0062E02C069
:10127000880F991F0A94E2F730E08223932302C07B
:10128000959587956A95E2F7089523B381E090E0FC
:10129000062E02C0880F991F0A94E2F730E08223DD
:1012A000932302C0959587956A95E2F7089520B338
:1012B00081E090E0062E02C0880F991F0A94E2F7A1
:1012C00030E08223932302C0959587956A95E2F7D3
:1012D000089580E008958234B9F0833418F481349D
:1012E000C9F505C08334E9F08434A1F527C02BB3D8
:1012F00081E090E0AC0102C0440F551F6A95E2F70F
:10130000BA0162276BBB089528B381E090E0AC017D
:1013100002C0440F551F6A95E2F7BA01622768BB05
:10132000089525B381E090E0AC0102C0440F551F41
:101330006A95E2F7BA01622765BB089522B381E09E
:1013400090E0AC0102C0440F551F6A95E2F7BA0164
:10135000622762BB0895823461F0833418F48134CB
:1013600069F405C0833439F0843441F406C06BBBA2
:10137000089568BB089565BB089562BB08958234E3
:1013800079F0833418F48134C9F405C0833469F0EA
:101390008434A1F40FC08BB3607F682B6BBB0895BE
:1013A00088B3607F682B68BB089585B3607F682B26
:1013B00065BB089582B3607F682B62BB0895823459
:1013C00071F0833418F48134A9F405C0833459F0E2
:1013D000843481F40CC08BB38F708BBB089588B3B9
:1013E0008F7088BB089585B38F7085BB089582B3D5
:1013F0008F7082BB0895823491F1833420F481345C
:1014000009F09BC007C0833409F44EC0843409F04E
:1014100094C06FC04130A9F480B78B7F80BF2AB3DE
:1014200081E090E0AC0102C0440F551F6A95E2F7DD
:10143000BA01842F809582238ABB8BB3682B6BBB48
:1014400008952BB381E090E0AC0102C0440F551F1A
:101450006A95E2F7BA01609562236BBB089541304B
:10146000A9F480B78B7F80BF27B381E090E0AC0107
:1014700002C0440F551F6A95E2F7BA01842F809588
:10148000822387BB88B3682B68BB089528B381E0AB
:1014900090E0AC0102C0440F551F6A95E2F7BA0113
:1014A0006095622368BB08954130A9F480B78B7FB3
:1014B00080BF24B381E090E0AC0102C0440F551F0F
:1014C0006A95E2F7BA01842F8095822384BB85B3A5
:1014D000682B65BB089525B381E090E0AC0102C0A4
:1014E000440F551F6A95E2F7BA016095622365BB08
:1014F00008954130A9F480B78B7F80BF21B381E08C
:1015000090E0AC0102C0440F551F6A95E2F7BA01A2
:10151000842F8095822381BB82B3682B62BB0895A0
:1015200022B381E090E0AC0102C0440F551F6A95E0
:10153000E2F7BA016095622362BB0895E199FECF9C
:101540009FBB8EBBE09A8DB30895DC01E199FECF7D
:101550004115510589F0E62FF72F20E030E0C90151
:101560008A0F9B1F9FBB8EBBE09A8DB381932F5F29
:101570003F4F2417350799F70895E199FECF9FBB98
:101580008EBBE09A8DB3861719F06DBBE29AE19A93
:101590000895DC0141155105C1F0E62FF72F20E039
:1015A00030E0E199FECFC9018A0F9B1F9FBB8EBB24
:1015B000E09A9DB38191981719F08DBBE29AE19A58
:1015C0002F5F3F4F2417350761F7089587B3806B6E
:1015D00087BB8DB181658DB90895BE9A6E9A0895C5
:1015E0008FB9779BFECF8FB108958EE48CBF83B700
:1015F000886083BF83B78F7B83BF83B7816083BFDE
:1016000083B78D7F83BF83B7846083BF789489B7A6
:10161000826089BF089583B78E7F83BF83B78D7F34
:1016200083BF83B78B7F83BF089580E88CBF83B768
:10163000806483BF83B7886083BF789483B78062F8
:1016400083BF89B7816089BF83B7816083BF83B758
:101650008D7F83BF83B7846083BF089520E030E02F
:1016600048EC52E40E943E0B20E030E040E853E4B6
:101670000E94230C0E94A60B6CBF08950CD0A9C039
:10168000A1D040F098D030F021F45F3F19F08AC02B
:101690005111D3C08DC0AED098F39923C9F355230F
:1016A000B1F3951B550BBB27AA2762177307840755
:1016B00038F09F5F5F4F220F331F441FAA1FA9F30B
:1016C00033D00E2E3AF0E0E830D091505040E695FD
:1016D000001CCAF729D0FE2F27D0660F771F881F5E
:1016E000BB1F261737074807AB07B0E809F0BB0B4D
:1016F000802DBF01FF2793585F4F2AF09E3F510571
:1017000068F050C09AC05F3FECF3983EDCF38695DA
:1017100077956795B795F7959F5FC9F7880F911DE6
:101720009695879597F90895E1E0660F771F881FD2
:10173000BB1F621773078407BA0720F0621B730B85
:10174000840BBA0BEE1F88F7E09508955BD088F004
:101750009F5790F0B92F9927B751A0F0D1F0660F9D
:10176000771F881F991F1AF0BA95C9F712C0B130B8
:1017700081F062D0B1E008955FC0672F782F88278D
:10178000B85F39F0B93FCCF3869577956795B395F7
:10179000D9F73EF490958095709561957F4F8F4F66
:1017A0009F4F089597F99F6780E870E060E0089583
:1017B0009FEF80EC089500240A9416161706180669
:1017C0000906089500240A94121613061406050645
:1017D0000895092E0394000C11F4882352F0BB0FD6
:1017E00040F4BF2B11F460FF04C06F5F7F4F8F4F39
:1017F0009F4F089557FD9058440F551F59F05F3F74
:1018000071F04795880F97FB991F61F09F3F79F022
:1018100087950895121613061406551FF2CF4695A4
:10182000F1DF08C0161617061806991FF1CF869526
:101830007105610508940895E894BB27662777270A
:10184000CB0197F908950BD0C4CFB5DF28F0BADFEC
:1018500018F0952309F0A6CFABCF1124EECFCADF45
:10186000A0F3959FD1F3950F50E0551F629FF001B3
:10187000729FBB27F00DB11D639FAA27F00DB11D0C
:10188000AA1F649F6627B00DA11D661F829F222795
:10189000B00DA11D621F739FB00DA11D621F839F1C
:1018A000A00D611D221F749F3327A00D611D231FF2
:1018B000849F600D211D822F762F6A2F11249F5740
:1018C00050408AF0E1F088234AF0EE0FFF1FBB1F63
:1018D000661F771F881F91505040A9F79E3F510502
:1018E00070F060CFAACF5F3FECF3983EDCF38695B3
:1018F00077956795B795F795E7959F5FC1F7FE2BAD
:10190000880F911D9695879597F90895F894FFCFC4
:1019100057656C636F6D6520746F20736D617274B1
:1019200000686F6D652073797374656D004C6F6727
:10193000696E20666F720066697273742074696DD7
:1019400065005365742041646D696E207061737326
:101950000041646D696E20706173733A0050617369
:101960007320536176656400536574204775657311
:1019700074205061737300477565737420506173F0
:10198000733A0053657373696F6E2054696D656FA8
:101990007574004C6F67696E20626C6F636B656471
:1019A0000077616974203230207365636F6E6473F1
:1019B0000053656C656374206D6F6465203A003078
:1019C0003A41646D696E20313A477565737400570A
:1019D000726F6E6720696E7075742E0041646D6958
:1019E0006E206D6F646500456E7465722050617382
:1019F000733A00526967687420706173730057729C
:101A00006F6E672050617373005472696573206C48
:101A10006566743A004775657374206D6F64650080
:101A2000456E74657220706173733A0057726F6E01
:101A300067207061737300313A526F6F6D312032DD
:101A40003A526F6F6D3200333A526F6F6D332034FC
:101A50003A4D6F72652000333A526F6F6D33203408
:101A60003A526F6F6D340057726F6E6720696E70F7
:101A7000757400313A526F6F6D3420202020323A55
:101A8000545620202000333A41697220436F6E641F
:101A90002E343A52455400313A5365742074656DC2
:101AA00070657261747572652000323A436F6E74AE
:101AB000726F6C2020303A52455400536574207484
:101AC000656D702E3A5F5F200054656D70657261C0
:101AD000747572652053656E7400526F6F6D31209E
:101AE000533A00526F6F6D3220533A00526F6F6D50
:101AF0003320533A00526F6F6D3420533A005456DE
:101B000020533A0041697220436F6E642E20533A8D
:101B1000004F4E004F464600312D4F6E20322D4F64
:101B2000666620302D5245540057726F6E672069EB
:101B30006E707574003738392F3435362A313233A8
:061B40002D41303D2B0099
:00000001FF
