:100000000C945A000C9477000C9477000C947700B1
:100010000C9477000C9477000C9477000C94770084
:100020000C9477000C9477000C946C010C9477007E
:100030000C9477000C9477000C9477000C94770064
:100040000C9477000C9477000C9477000C94770054
:100050000C947700AB00BF00D300E7000F01FB005A
:100060009A009A009A009A009A009A009A009A00C0
:100070009A009A00230128012D0132013E01370127
:100080009A009A009A009A009A009A009A009A00A0
:100090009A009A00430148014D0152015E01570147
:1000A0009A009A009A009A009A009A009A009A0080
:1000B0009A00630111241FBECFE5D8E0DEBFCDBF9B
:1000C00010E0A0E6B0E0E0E1FDE002C005900D9296
:1000D000A236B107D9F710E0A2E6B0E001C01D9248
:1000E000A636B107E1F70E9479000C9486060C94BD
:1000F00000000E9406020E94B8040E94B00484E43A
:1001000062E00E94F40184E463E00E94F40184E46C
:1001100064E00E94F40184E465E00E94F40184E458
:1001200066E00E94F40184E467E00E94F401CFEFEE
:10013000D0E011E08FEF0E94B30490E0419780334C
:100140009105C0F7865D9F4FFC01EE0FFF1F0590E4
:10015000F491E02D099484E464E00E940302882372
:1001600039F084E464E00E940302813021F402C08B
:10017000CD2F01C0C12F8C2F0E94B304DBCF84E4AC
:1001800065E00E940302882339F084E465E00E9460
:100190000302813021F402C0CD2F01C0C12F8C2F6A
:1001A0000E94B304C7CF84E466E00E940302882360
:1001B00039F084E466E00E940302813021F402C039
:1001C000CD2F01C0C12F8C2F0E94B304B3CF84E484
:1001D00067E00E940302882339F084E467E00E940C
:1001E0000302813021F402C0CD2F01C0C12F8C2F1A
:1001F0000E94B3049FCF84E462E00E94030288233C
:1002000039F084E462E00E940302813021F402C0EC
:10021000CD2F01C0C12F8C2F0E94B3048BCF84E45B
:1002200063E00E940302882339F084E463E00E94C3
:100230000302813021F402C0CD2F01C0C12F8C2FC9
:100240000E94B30477CF84E464E00E94F80172CF87
:1002500084E465E00E94F8016DCF84E466E00E94CA
:10026000F80168CF84E467E00E94F80163CF0E9440
:10027000B80484E462E00E94F8015CCF84E463E0A7
:100280000E94F80157CF84E464E00E94FC0152CF41
:1002900084E465E00E94FC014DCF84E466E00E94A6
:1002A000FC0148CF84E467E00E94FC0143CF0E9438
:1002B000CE0484E462E00E94FC013CCF84E463E06D
:1002C0000E94FC0137CF8FEF0E94B30490E090931F
:1002D0006100809360002ECF1F920F920FB60F9295
:1002E00011242F933F934F935F936F937F938F933B
:1002F0009F93AF93BF93EF93FF93809163008F5FC2
:1003000080936300809163008A3008F45CC010928F
:1003100063000E940C02BC0180E090E00E94950501
:1003200020E030E040E85EE30E9423060E94690579
:10033000DC01CB0190936500809364002091600004
:100340003091610080916400909165002F5F3F4F74
:100350008217930740F084E462E00E94F80181E094
:100360008093620030C020916000309161008091E4
:10037000640090916500215030402817390738F00B
:1003800084E462E00E94FC01109262001CC0209193
:1003900060003091610080916400909165002817A1
:1003A000390789F480916200813029F484E462E0A5
:1003B0000E94F80108C080916200882321F484E43F
:1003C00062E00E94FC01FF91EF91BF91AF919F917C
:1003D0008F917F916F915F914F913F912F910F90EE
:1003E0000FBE0F901F90189541E00E9418020895CB
:1003F00041E00E949B02089540E00E949B02089504
:100400000E94760308950E941E0308953E9A3F9A23
:10041000379A329A319A0895369A349BFECF349A9D
:1004200084B190E045B1342F20E0822B932B0895C6
:10043000823451F1833420F4813409F07BC007C049
:10044000833409F43EC0843409F074C057C041308D
:1004500069F42AB381E090E0AC0102C0440F551F5B
:100460006A95E2F7BA01622B6ABB08952AB381E06C
:1004700090E0AC0102C0440F551F6A95E2F7BA0143
:10048000609562236ABB0895413069F427B381E027
:1004900090E0AC0102C0440F551F6A95E2F7BA0123
:1004A000622B67BB089527B381E090E0AC0102C0E6
:1004B000440F551F6A95E2F7BA016095622367BB46
:1004C0000895413069F424B381E090E0AC0102C0AA
:1004D000440F551F6A95E2F7BA01622B64BB089579
:1004E00024B381E090E0AC0102C0440F551F6A952F
:1004F000E2F7BA016095622364BB0895413069F464
:1005000021B381E090E0AC0102C0440F551F6A9511
:10051000E2F7BA01622B61BB089521B381E090E05C
:10052000AC0102C0440F551F6A95E2F7BA0160950D
:10053000622361BB0895823451F1833420F4813405
:1005400009F07BC007C0833409F43EC0843409F04D
:1005500074C057C0413069F42BB381E090E0AC0126
:1005600002C0440F551F6A95E2F7BA01622B6BBBBC
:1005700008952BB381E090E0AC0102C0440F551FF9
:100580006A95E2F7BA01609562236BBB089541302A
:1005900069F428B381E090E0AC0102C0440F551F1C
:1005A0006A95E2F7BA01622B68BB089528B381E02F
:1005B00090E0AC0102C0440F551F6A95E2F7BA0102
:1005C0006095622368BB0895413069F425B381E0EA
:1005D00090E0AC0102C0440F551F6A95E2F7BA01E2
:1005E000622B65BB089525B381E090E0AC0102C0A9
:1005F000440F551F6A95E2F7BA016095622365BB07
:100600000895413069F422B381E090E0AC0102C06A
:10061000440F551F6A95E2F7BA01622B62BB089539
:1006200022B381E090E0AC0102C0440F551F6A95EF
:10063000E2F7BA016095622362BB08958234F1F05B
:10064000833420F4813409F04FC006C0833441F173
:10065000843409F049C036C029B381E090E0062E09
:1006600002C0880F991F0A94E2F730E08223932397
:1006700002C0959587956A95E2F7089526B381E0C3
:1006800090E0062E02C0880F991F0A94E2F730E02E
:100690008223932302C0959587956A95E2F7089582
:1006A00023B381E090E0062E02C0880F991F0A94C0
:1006B000E2F730E08223932302C0959587956A95EF
:1006C000E2F7089520B381E090E0062E02C0880F83
:1006D000991F0A94E2F730E08223932302C0959594
:1006E00087956A95E2F7089580E008958234B9F01D
:1006F000833418F48134C9F505C08334E9F08434B7
:10070000A1F527C02BB381E090E0AC0102C0440FFB
:10071000551F6A95E2F7BA0162276BBB089528B3AB
:1007200081E090E0AC0102C0440F551F6A95E2F7EA
:10073000BA01622768BB089525B381E090E0AC015F
:1007400002C0440F551F6A95E2F7BA01622765BBE4
:10075000089522B381E090E0AC0102C0440F551F20
:100760006A95E2F7BA01622762BB0895823461F0AC
:10077000833418F4813469F405C0833439F0843447
:1007800041F406C06BBB089568BB089565BB08952E
:1007900062BB0895823479F0833418F48134C9F44B
:1007A00005C0833469F08434A1F40FC08BB3607F3B
:1007B000682B6BBB089588B3607F682B68BB089576
:1007C00085B3607F682B65BB089582B3607F682B1B
:1007D00062BB0895823471F0833418F48134A9F433
:1007E00005C0833459F0843481F40CC08BB38F700E
:1007F0008BBB089588B38F7088BB089585B38F70C5
:1008000085BB089582B38F7082BB0895823491F1C5
:10081000833420F4813409F09BC007C0833409F489
:100820004EC0843409F094C06FC04130A9F480B741
:100830008B7F80BF2AB381E090E0AC0102C0440FFF
:10084000551F6A95E2F7BA01842F809582238ABBEF
:100850008BB3682B6BBB08952BB381E090E0AC01A8
:1008600002C0440F551F6A95E2F7BA0160956223F2
:100870006BBB08954130A9F480B78B7F80BF27B34D
:1008800081E090E0AC0102C0440F551F6A95E2F789
:10089000BA01842F8095822387BB88B3682B68BBFD
:1008A000089528B381E090E0AC0102C0440F551FC9
:1008B0006A95E2F7BA016095622368BB08954130FA
:1008C000A9F480B78B7F80BF24B381E090E0AC01B6
:1008D00002C0440F551F6A95E2F7BA01842F809534
:1008E000822384BB85B3682B65BB089525B381E063
:1008F00090E0AC0102C0440F551F6A95E2F7BA01BF
:100900006095622365BB08954130A9F480B78B7F61
:1009100080BF21B381E090E0AC0102C0440F551FBD
:100920006A95E2F7BA01842F8095822381BB82B356
:10093000682B62BB089522B381E090E0AC0102C055
:10094000440F551F6A95E2F7BA016095622362BBB6
:10095000089587B3806B87BB8DB181658DB908958C
:10096000BE9A6E9A08958FB9779BFECF8FB1089586
:100970008EE48CBF83B7886083BF83B78F7B83BFD0
:1009800083B7816083BF83B78D7F83BF83B7846064
:1009900083BF789489B7826089BF089583B78E7FBB
:1009A00083BF83B78D7F83BF83B78B7F83BF08955A
:1009B00080E88CBF83B7806483BF83B7886083BFC0
:1009C000789483B7806283BF89B7816089BF83B71A
:1009D000816083BF83B78D7F83BF83B7846083BF0C
:1009E000089520E030E048EC52E40E94010520E048
:1009F00030E040E853E40E9423060E9469056CBF82
:100A000008950CD0E6C0DED040F0D5D030F021F40F
:100A10005F3F19F0C7C0511110C1CAC0EBD098F3A5
:100A20009923C9F35523B1F3951B550BBB27AA276F
:100A300062177307840738F09F5F5F4F220F331FE1
:100A4000441FAA1FA9F333D00E2E3AF0E0E830D0AD
:100A500091505040E695001CCAF729D0FE2F27D0B0
:100A6000660F771F881FBB1F261737074807AB077E
:100A7000B0E809F0BB0B802DBF01FF2793585F4FF3
:100A80002AF09E3F510568F08DC0D7C05F3FECF360
:100A9000983EDCF3869577956795B795F7959F5FB8
:100AA000C9F7880F911D9695879597F90895E1E00C
:100AB000660F771F881FBB1F621773078407BA076B
:100AC00020F0621B730B840BBA0BEE1F88F7E095C6
:100AD000089598D088F09F5790F0B92F9927B75173
:100AE000A0F0D1F0660F771F881F991F1AF0BA95F2
:100AF000C9F712C0B13081F09FD0B1E008959CC019
:100B0000672F782F8827B85F39F0B93FCCF38695E7
:100B100077956795B395D9F73EF490958095709544
:100B200061957F4F8F4F9F4F0895E89409C097FBC1
:100B30003EF490958095709561957F4F8F4F9F4FB4
:100B40009923A9F0F92F96E9BB279395F6958795F8
:100B500077956795B795F111F8CFFAF4BB0F11F4BB
:100B600060FF1BC06F5F7F4F8F4F9F4F16C0882362
:100B700011F096E911C0772321F09EE8872F762F98
:100B800005C0662371F096E8862F70E060E02AF0D9
:100B90009A95660F771F881FDAF7880F96958795C5
:100BA00097F9089597F99F6780E870E060E00895ED
:100BB0009FEF80EC089500240A9416161706180675
:100BC0000906089500240A94121613061406050651
:100BD0000895092E0394000C11F4882352F0BB0FE2
:100BE00040F4BF2B11F460FF04C06F5F7F4F8F4F45
:100BF0009F4F089557FD9058440F551F59F05F3F80
:100C000071F04795880F97FB991F61F09F3F79F02E
:100C100087950895121613061406551FF2CF4695B0
:100C2000F1DF08C0161617061806991FF1CF869532
:100C30007105610508940895E894BB276627772716
:100C4000CB0197F908950BD0C4CFB5DF28F0BADFF8
:100C500018F0952309F0A6CFABCF1124EECFCADF51
:100C6000A0F3959FD1F3950F50E0551F629FF001BF
:100C7000729FBB27F00DB11D639FAA27F00DB11D18
:100C8000AA1F649F6627B00DA11D661F829F2227A1
:100C9000B00DA11D621F739FB00DA11D621F839F28
:100CA000A00D611D221F749F3327A00D611D231FFE
:100CB000849F600D211D822F762F6A2F11249F574C
:100CC00050408AF0E1F088234AF0EE0FFF1FBB1F6F
:100CD000661F771F881F91505040A9F79E3F51050E
:100CE00070F060CFAACF5F3FECF3983EDCF38695BF
:100CF00077956795B795F795E7959F5FC1F7FE2BB9
:100D0000880F911D9695879597F90895F894FFCFD0
:020D10001800C9
:00000001FF
